{
  "contractName": "Election",
  "abi": [
    {
      "inputs": [],
      "stateMutability": "nonpayable",
      "type": "constructor"
    },
    {
      "anonymous": false,
      "inputs": [
        {
          "indexed": false,
          "internalType": "uint256",
          "name": "id",
          "type": "uint256"
        },
        {
          "indexed": false,
          "internalType": "string",
          "name": "nmae",
          "type": "string"
        },
        {
          "indexed": false,
          "internalType": "uint256",
          "name": "vote_count",
          "type": "uint256"
        }
      ],
      "name": "electionUpdated",
      "type": "event"
    },
    {
      "inputs": [],
      "name": "candidateCount",
      "outputs": [
        {
          "internalType": "uint256",
          "name": "",
          "type": "uint256"
        }
      ],
      "stateMutability": "view",
      "type": "function",
      "constant": true
    },
    {
      "inputs": [
        {
          "internalType": "uint256",
          "name": "",
          "type": "uint256"
        }
      ],
      "name": "candidates",
      "outputs": [
        {
          "internalType": "uint256",
          "name": "id",
          "type": "uint256"
        },
        {
          "internalType": "string",
          "name": "name",
          "type": "string"
        },
        {
          "internalType": "uint256",
          "name": "vote_count",
          "type": "uint256"
        }
      ],
      "stateMutability": "view",
      "type": "function",
      "constant": true
    },
    {
      "inputs": [
        {
          "internalType": "address",
          "name": "",
          "type": "address"
        }
      ],
      "name": "voted",
      "outputs": [
        {
          "internalType": "bool",
          "name": "",
          "type": "bool"
        }
      ],
      "stateMutability": "view",
      "type": "function",
      "constant": true
    },
    {
      "inputs": [
        {
          "internalType": "string",
          "name": "name",
          "type": "string"
        }
      ],
      "name": "addCandidate",
      "outputs": [],
      "stateMutability": "nonpayable",
      "type": "function"
    },
    {
      "inputs": [
        {
          "internalType": "uint256",
          "name": "_id",
          "type": "uint256"
        }
      ],
      "name": "Vote",
      "outputs": [],
      "stateMutability": "nonpayable",
      "type": "function"
    }
  ],
  "bytecode": "0x608060405234801561001057600080fd5b506000808190555061005c6040518060400160405280600c81526020017f42617261636b204f62616d6100000000000000000000000000000000000000008152506100a560201b60201c565b6100a06040518060400160405280600c81526020017f446f6e616c64205472756d7000000000000000000000000000000000000000008152506100a560201b60201c565b6101bc565b6000808154809291906001019190505550604051806060016040528060005481526020018281526020016000815250600160008054815260200190815260200160002060008201518160000155602082015181600101908051906020019061010e92919061011f565b506040820151816002015590505050565b828054600181600116156101000203166002900490600052602060002090601f016020900481019282601f1061016057805160ff191683800117855561018e565b8280016001018555821561018e579182015b8281111561018d578251825591602001919060010190610172565b5b50905061019b919061019f565b5090565b5b808211156101b85760008160009055506001016101a0565b5090565b610767806101cb6000396000f3fe608060405234801561001057600080fd5b50600436106100575760003560e01c80633477ee2e1461005c578063462e91ec14610111578063a9a981a3146101cc578063aec2ccae146101ea578063dcd6a5cd14610244575b600080fd5b6100886004803603602081101561007257600080fd5b8101908080359060200190929190505050610272565b6040518084815260200180602001838152602001828103825284818151815260200191508051906020019080838360005b838110156100d45780820151818401526020810190506100b9565b50505050905090810190601f1680156101015780820380516001836020036101000a031916815260200191505b5094505050505060405180910390f35b6101ca6004803603602081101561012757600080fd5b810190808035906020019064010000000081111561014457600080fd5b82018360208201111561015657600080fd5b8035906020019184600183028401116401000000008311171561017857600080fd5b91908080601f016020809104026020016040519081016040528093929190818152602001838380828437600081840152601f19601f820116905080830192505050505050509192919290505050610334565b005b6101d46103ae565b6040518082815260200191505060405180910390f35b61022c6004803603602081101561020057600080fd5b81019080803573ffffffffffffffffffffffffffffffffffffffff1690602001909291905050506103b4565b60405180821515815260200191505060405180910390f35b6102706004803603602081101561025a57600080fd5b81019080803590602001909291905050506103d4565b005b6001602052806000526040600020600091509050806000015490806001018054600181600116156101000203166002900480601f0160208091040260200160405190810160405280929190818152602001828054600181600116156101000203166002900480156103245780601f106102f957610100808354040283529160200191610324565b820191906000526020600020905b81548152906001019060200180831161030757829003601f168201915b5050505050908060020154905083565b6000808154809291906001019190505550604051806060016040528060005481526020018281526020016000815250600160008054815260200190815260200160002060008201518160000155602082015181600101908051906020019061039d929190610694565b506040820151816002015590505050565b60005481565b60026020528060005260406000206000915054906101000a900460ff1681565b600260003373ffffffffffffffffffffffffffffffffffffffff1673ffffffffffffffffffffffffffffffffffffffff16815260200190815260200160002060009054906101000a900460ff1615610494576040517f08c379a000000000000000000000000000000000000000000000000000000000815260040180806020018281038252600d8152602001807f416c726561647920566f7465640000000000000000000000000000000000000081525060200191505060405180910390fd5b600060016000838152602001908152602001600020600001541415610521576040517f08c379a00000000000000000000000000000000000000000000000000000000081526004018080602001828103825260188152602001807f43616e64696461746520646f6573206e6f74206578697374000000000000000081525060200191505060405180910390fd5b6000600260003373ffffffffffffffffffffffffffffffffffffffff1673ffffffffffffffffffffffffffffffffffffffff16815260200190815260200160002060006101000a81548160ff0219169083151502179055506001806000838152602001908152602001600020600201600082825401925050819055507f468c4db6bbf92318a2d591709af395c4057304a0008128482f1591d0f990f83a8160016000848152602001908152602001600020600101600160008581526020019081526020016000206002015460405180848152602001806020018381526020018281038252848181546001816001161561010002031660029004815260200191508054600181600116156101000203166002900480156106815780601f1061065657610100808354040283529160200191610681565b820191906000526020600020905b81548152906001019060200180831161066457829003601f168201915b505094505050505060405180910390a150565b828054600181600116156101000203166002900490600052602060002090601f016020900481019282601f106106d557805160ff1916838001178555610703565b82800160010185558215610703579182015b828111156107025782518255916020019190600101906106e7565b5b5090506107109190610714565b5090565b5b8082111561072d576000816000905550600101610715565b509056fea26469706673582212207e71210092aec368cfd110718d96a41e2d1fde36479470c971991a2ab11d699b64736f6c63430007000033",
  "immutableReferences": {},
  "source": "//SPDX-License-Identifier: UNLICENSED\npragma solidity ^0.7.0;\n\ncontract Election {\n\n    struct Candidate{\n        uint id;\n        string name;\n        uint vote_count;\n    }\n\n    uint public candidateCount;\n    mapping(uint => Candidate) public candidates;\n    mapping(address => bool) public voted;\n    event electionUpdated(\n        uint id,\n        string nmae,\n        uint vote_count\n    );\n    constructor(){\n        candidateCount = 0;\n        addCandidate(\"Barack Obama\");\n        addCandidate(\"Donald Trump\");\n    }\n\n    function addCandidate(string memory name) public{\n        candidateCount++;\n        candidates[candidateCount] = Candidate(candidateCount, name, 0);\n    }\n\n    function Vote(uint _id) public{\n        require(!voted[msg.sender],\"Already Voted\");\n        require(candidates[_id].id != 0,\"Candidate does not exist\");\n        voted[msg.sender] = false;\n        candidates[_id].vote_count += 1;\n        emit electionUpdated(_id, candidates[_id].name, candidates[_id].vote_count);\n    }\n\n}\n",
  "sourcePath": "/home/demonwolf/WebstormProjects/us-voting/contracts/Election.sol",
  "compiler": {
    "name": "solc",
    "version": "0.7.0+commit.9e61f92b.Emscripten.clang"
  },
  "schemaVersion": "3.3.4",
  "updatedAt": "2021-04-01T03:28:13.002Z",
  "networkType": "ethereum",
  "devdoc": {
    "kind": "dev",
    "methods": {},
    "version": 1
  },
  "userdoc": {
    "kind": "user",
    "methods": {},
    "version": 1
  }
}